:020000040000FA
:040000008031212802
:100008007E1480312100911D0A280B281328200016
:10001800911D0F28102813288031402080318B1E15
:10002800162817281F280B1D1A281B281F2883315C
:10003800D12380310B117E10090080312328FA0169
:10004800203084000030850022308331C523803180
:10005800CD3084000030850023308331C5238031C2
:10006800203084000130850022308331C52380315F
:100078007E1020008331072B2000911124001512D7
:10008800151B472848284C28951F4B284C285528CD
:100098001108F10071082000A00024001513951321
:1000A8001516941A58285928682814195C285D28A8
:1000B80068281108F10071082000A0002400141815
:1000C8006628672862281516941E6B286C288328D2
:1000D80014196F28702883281108F100200041089E
:1000E800213E86008701710881000130F100710806
:1000F800C10724001418812882287D281516941A0F
:1001080086288728AA28141D8A288B28AA28110837
:10011800F10071082000A0002400141894289528E4
:10012800902854309100200091199B289C289728EA
:10013800A4285430910020009119A328A4289F28AE
:100148002400161FA828A9289D281516941EAD2836
:10015800AE28B328141DB128B228B3281516141ECA
:10016800B628B728D82820308600003087004230CB
:100178008400003085002230F10016001A00F10BCF
:10018800C12882316F22803133308400823085006B
:1001980020308600003087002230F10012001E0057
:1001A800F10BD228240015160800F801F80A0130CE
:1001B8008131A72180315530F8008230F900823131
:1001C800E8228031F801F80A02308131A721803114
:1001D8005530F8008230F9008231E8228031210060
:1001E800CC0122294C080F39013E2200C2004208E6
:1001F800F8001030F3000030F40021004C08220011
:10020800C300C4014308F5004408F60081314721C2
:1002180080317308013E8131A721803121004C08CB
:10022800013EAA3E86008701010882319C22803166
:1002380001302200C20042082100CC074C08013ED0
:10024800AA3E860087010108031D2B292C29F628C0
:1002580010302200C2004208F80001308131A72185
:1002680080317C3082319C22803110302200C200E3
:100278004208F80002308131A72180317C30823178
:100288009C22803108002100A101F41F4C294D292E
:100298005429F309F409F30A0319F40AA101A10A7C
:1002A800F61F572958296129F509F609F50A03198E
:1002B800F60A0130F7007708A106A201A301730826
:1002C80074040319682969299829A001A00A7529C5
:1002D8000130F335F40D890B6D290130F7007708EB
:1002E800A007F41F782979296C290130A235A30DBC
:1002F800890B7A2974087602031D8429730875020C
:10030800031C872988298D297308F5027408F63B90
:1003180022140130F436F30C890B8E290130A00227
:10032800031D972998297929210803199C299D29B2
:10033800A229A209A309A20A0319A30A2308F400FF
:100348002208F30008002100A6002603031DAD299A
:10035800AE29CC2978087F3EA4002408A9002908E2
:10036800A4000430A436890BB6292408A500250862
:10037800A70029080F39A4002408A80027088331FA
:100388002323813121002808833123238131EF2958
:1003980002302606031DD129D229EF297808BF3E4D
:1003A800A4002408A9002908A4000430A436890B55
:1003B800DA292408A5002508A70029080F39A40070
:1003C8002408A80027088331232381312100280825
:1003D800833123238131080000308231C8228131E2
:1003E8003430F600F230890BF729F60BF729033081
:1003F8008331232381310D30F600FC30890B022A2A
:10040800F60B022A03308331232381311D30F60095
:100418009130890B0D2AF60B0D2A00000330833129
:100428002323813102308331232381310230833108
:1004380023238131083083312323813100308331F4
:10044800232381310C3083312323813100308331E0
:10045800232381310630833123238131080000347E
:1004680000340034003400340034003400340034E4
:1004780000340034003400340034003400340034D4
:1004880000340034003400340034003400340034C4
:1004980000340034003400340034003400340034B4
:1004A80000342D342D342D342D342D342D342D3469
:1004B8002D342D342D342D342D342D342D342D342C
:1004C8002D342D342D342D342D342D342D342D341C
:1004D8002D342D34003422000E0D0E0D0139F0009C
:1004E8000130F006F00CF00C0E0870067F3970062B
:1004F8008E00CD3086000030870020308400013027
:1005080085002230F00016001A00F00B872A4230CE
:10051800860000308700CD3084000030850022300E
:10052800F00016001A00F00B952A21006F1408003D
:10053800F70077080F39F4007408F5007708F039E8
:10054800F4007408F60022008D147608F4000430D4
:10055800F436890BAC2A74088231C8228231220011
:100568000D141A30890BB62A003222000D107508B6
:100578008231C822823122000D141A30890BC22A16
:10058800003222000D100800F300731CCC2ACD2A7B
:10059800D02A22000C14D22A22000C10F31CD52ACF
:1005A800D62AD82A8C14D92A8C10731DDC2ADD2A65
:1005B800DF2A0C15E02A0C11F31DE32AE42AE62AA7
:1005C8008C15E72A8C1108002100A101A201FB2A41
:1005D8007808210784007908223D850000088231C7
:1005E8009C22823101302100A1070030A23D780809
:1005F800210784007908223D85001200031D052B80
:10060800062BEC2A080083317F2383318131F021C6
:1006180083318331AE238331F801F80A0130813107
:10062800A72183318C30F8008330F9008231E82229
:1006380083318331A42383311D2B80312128F50098
:1006480022008D1075088231C822833122000D14D2
:100658000B30F4006230890B2F2BF40B2F2B003258
:1006680022000D10080021008E150E1636302400C9
:100678009500013096009701303092008030940048
:100688008B170B1720009111210091150800CD3010
:10069800860000308700AA308400003085002230B0
:1006A8002200C50016001A00C50B562B8031D92030
:1006B800833108006134643464343A34203420349B
:1006C80064346134743461343A3420342034493425
:1006D80032344334003421008C018D018E018F01A6
:1006E80022008C018D018E018F0123008C018D0168
:1006F8008E018F0108008331BE2383318331B723F4
:1007080083318331372383318331CB23833108000D
:10071800573461346934743469346E34673420343E
:100728002E342E342E340034210095111508F83952
:1007380004389500951215128B16200095010800B3
:1007480021006F1CA82BA92BAD2B6F1083314B23D5
:100758008331080000308331232383310130833112
:1007680023238331080083316F2383318331D023DE
:1007780083310800210099141908873970389900C5
:100788000800640080010131890BC62B00348331D5
:0C079800982383318B170800080008002C
:020000040001F9
:04000E00E4FFFFDF2D
:00000001FF
