:020000040000FA
:040000008031212802
:100008007E1480312100911D0A280B281328200016
:10001800911D0F28102813288031302080318B1E25
:10002800162817281F280B1D1A281B281F2882315D
:10003800892280310B117E10090080312328FA01B2
:10004800FB012000A801A901AA01AB01AC01AD0187
:100058007E1020008131C52920009111240015123D
:10006800151B372838283C28951F3B283C2843284F
:100078001108F0007008FB00151395131516941A53
:1000880046284728542814194A284B285428110868
:10009800F0007008FB001418522853284F28151632
:1000A800941E57285828652814195B285C28652849
:1000B8001108F0007008FA001418632864286028F2
:1000C8001516941A682869288A28141D6C286D2822
:1000D8008A281108F0007008FB0014187428752885
:1000E800712854309100200091197B287C287728AA
:1000F80084285430910020009119832884287F286F
:100108002400161F882889287D281516941E8D28F6
:100118008E289328141D91289228932815162000BC
:100128002B08A9002A08A8007B08F0007008AA007C
:100138007A08F0007008AB002D1408002000A00019
:100148002003031DA828A928C72875087F3EF600A4
:100158007608A3002308F6000430F636890BB12888
:100168007608F7007708A10023080F39F60076080B
:10017800A20021088131E12180312000220881314B
:10018800E1218031EA2802302006031DCC28CD2841
:10019800EA287508BF3EF6007608A3002308F60093
:1001A8000430F636890BD5287608F7007708A100C1
:1001B80023080F39F6007608A20021088131E121D1
:1001C8008031200022088131E1218031080000308F
:1001D8008131862180313430F500F230890BF228E4
:1001E800F50BF22803308131E12180310D30F50023
:1001F800FC30890BFD28F50BFD2803308131E12106
:1002080080311D30F5009130890B0829F50B08293C
:10021800000003308131E121803102308131E12158
:10022800803102308131E121803108308131E12192
:10023800803100308131E12180310C308131E12180
:10024800803100308131E121803106308131E12176
:10025800803108002000A700F501F50A2708803141
:10026800A22081311C30F7008230F8008131A621AC
:10027800813105302000A6002608F50027088031C6
:10028800A22081312000240881315A2181310C308B
:100298002000A6002608F50027088031A220813119
:1002A8002000250881315A2181310800F60076089E
:1002B8000F39F3007308F4007608F039F300730877
:1002C800F50022008D147508F3000430F336890B0D
:1002D8006A29730881318621813122000D141A3070
:1002E800890B7429003222000D107408813186218F
:1002F800813122000D141A30890B80290032220026
:100308000D100800F200721C8A298B298E29220000
:100318000C14902922000C10F21C93299429962978
:100328008C1497298C10721D9A299B299D290C15CC
:100338009E290C11F21DA129A229A4298C15A529F1
:100348008C1108002000A001A101B9297708200715
:1003580084007808213D8500000881315A218131C7
:1003680001302000A0070030A13D77082007840055
:100378007808213D85001200031DC329C429AA2934
:10038800080082313D2281318031EB208131823178
:100398006C228131F501F50A01308031A2208131CA
:1003A8004A30F7008230F8008131A621813182314C
:1003B80062228131DB2980312128F40022008D104E
:1003C800740881318621813122000D140B30F3002D
:1003D8006230890BED29F30BED29003222000D1054
:1003E800080021008E150E163630240095000130C5
:1003F8009600970130309200803094008B170B17CD
:100408002000911121009115080020002B08A5005B
:100418002A08A400013081312E21823120002908C8
:10042800A5002808A400023081312E21823108005D
:100438006134643464343A342034203464346134AC
:10044800743461343A3420342034493432344334F7
:10045800003421008C018D018E018F0122008C0156
:100468008D018E018F0123008C018D018E018F017A
:10047800080082317C2282318231752282318131B9
:10048800F521823182318322823108005734613468
:100498006934743469346E34673420342E342E341D
:1004A8002E340034210095111508F83904389500C8
:1004B800951215128B1620009501080020002D1C9E
:1004C800662A672A6B2A2D10823109228231080098
:1004D80000308131E121823101308131E1218231E5
:1004E800080082312D22823182318822823108002F
:1004F8002100991419088739703899000800823149
:0C050800562282318B1708000800080002
:020000040001F9
:04000E00E4FFFFDF2D
:00000001FF
