:020000040000FA
:04000000803114280F
:100008007E1480318B1E09280A2812280B1D0D2802
:100018000E2812288131992180310B117E10090098
:1000280080311628FA01FB017E1020008031F1286A
:10003800F6007603031D212822283F2873087F3EF7
:10004800F4007408F9007908F4000430F436890BD8
:100058002A287408F5007508F70079080F39F400A4
:100068007408F800770881312B21803178088131B4
:100078002B218031612802307606031D442845284B
:1000880061287308BF3EF4007408F9007908F40089
:100098000430F436890B4D287408F5007508F7000C
:1000A80079080F39F4007408F800770881312B219A
:1000B8008031780881312B2180310800003080316F
:1000C800D12080313430F300F230890B6928F30BEA
:1000D8006928033081312B2180310D30F300FC3049
:1000E800890B7428F30B7428033081312B2180315C
:1000F8001D30F3009130890B7F28F30B7F28000017
:10010800033081312B218031023081312B21803124
:10011800023081312B218031083081312B2180310F
:10012800003081312B2180310C3081312B218031FD
:10013800003081312B218031063081312B218031F3
:100148000800F40074080F39F1007108F20074080F
:10015800F039F1007108F30022008D147308F100E2
:100168000430F136890BB52871088031D1208031EF
:1001780022000D141A30890BBF28003222000D10FE
:1001880072088031D120803122000D141A30890B79
:10019800CB28003222000D100800F000701CD52872
:1001A800D628D92822000C14DB2822000C10F01CB9
:1001B800DE28DF28E1288C14E2288C10701DE52841
:1001C800E628E8280C15E9280C11F01DEC28ED2884
:1001D800EF288C15F0288C11080081314F218031CF
:1001E80021008C018D018E018031622080318131A6
:1001F80073218031F301F30A013080311C208031F2
:100208006830F5008130F60081310E2180310B29EC
:1002180080311428F801F9011F297508780784002E
:100228007608793D850000088031A52081310130AC
:10023800F8070030F93D7508780784007608793D9D
:1002480085001200031D29292A2911290800F20016
:1002580022008D1072088031D120813122000D14C6
:100268000B30F1006230890B3729F10B3729003246
:1002780022000D10080021008C018D018E018F01D4
:1002880022008C018D018E018F0123008C018D01CC
:100298008E018F01080081318C21813181318521C6
:1002A800813181317C218131813193218131080073
:1002B800210095111508F839043895009512151282
:1002C8008B162000950108004434453454342034FA
:1002D8005634493452344B344534523400340030A7
:1002E80081312B218131013081312B21813108006D
:1002F80021008E150E161330240092002830950028
:10030800080081313F2181318131982181310800F4
:10031800210099141908873970389900080081312B
:0C0328005C2181318B17080008000800E0
:020000040001F9
:04000E00E4FFFFDF2D
:00000001FF
