:020000040000FA
:04000000803114280F
:100008007E1480318B1E09280A2812280B1D0D2802
:100018000E28122881311D2180310B117E10090014
:1000280080311628FD017E10200080316428F900F7
:100038008031F92080317908F400F5017408F00066
:100048007508F1008031B0208031003A03192D285D
:100058002E282F286328FA0150287308F500720803
:10006800F4007A087407840075080318750A850077
:100078000008F600F7017608F0007708F1008031F3
:10008800B0208031003A03194A284B284C286328AD
:100098000130F4007408FA077308F5007208F400D8
:1000A8007A087407840075080318750A8500120019
:1000B800031D5F2860283128813110218031080014
:1000C8008031D720803122008E1794302000A00084
:1000D8008030A10022000E0D0E0D0139FB00013009
:1000E800FB06FB0CFB0C0E087B067F397B068E009B
:1000F8001F30FC007130FB001E30890B8128FB0B80
:100108008128FC0B8128003220002108F3002008F8
:10011800F200303080311B2080316E288031142865
:10012800483465346A3420346D346534643420349A
:1001380064346934673420343A3429342034203420
:100148004D346534673465347434203473346A3418
:100158006F34763474340034700824009100200021
:10016800911DB728B828B32891112400161FBD285F
:10017800BE28C52816151619C228C328BF2801305D
:10018800C6280030080021008C018D018E018F01E6
:1001980022008C018D018E018F0123008C018D01BD
:1001A8008E018F01080081310921803181310221BE
:1001B80080318031F0208031813117218031080071
:1001C800210095111508F839043895009512151273
:1001D8008B1620009501080021008E150E1613308D
:1001E80024009200283095000800240016141618E0
:1001F800FE28FF28FB282000911108008031C72025
:10020800813181311C21813108002100991419089C
:100218008739703899000800240016151619152911
:100228001629122908008031E42081318B17080033
:0402380008000800B2
:020000040001F9
:04000E00E4FFFFDF2D
:00000001FF
