:020000040000FA
:04000000803114280F
:100008007E1480318B1E09280A2812280B1D0D2802
:100018000E2812288031E22080310B117E10090051
:1000280080311628FA017E10200080311B2880318B
:100038009C20803122008E173030F7007708F900B5
:100048001F30F8007130F7001E30890B2928F70B94
:100058002928F80B292800327908F7007708F200D8
:10006800303080314D20803122000E0D0E0D0139C7
:10007800F7000130F706F70CF70C0E0877067F3902
:1000880077068E000130F7007708F90724288031B9
:100098001428F6008031BE2080317608F300F40180
:1000A8007308F0007408F100803175208031003A3F
:1000B80003195F286028612874287208F300F40186
:1000C8007308F0007408F100803175208031003A1F
:1000D80003196F287028712874288031D520803141
:1000E80008007008240091002000911D7C287D28BC
:1000F800782891112400161F822883288A2816152B
:10010800161987288828842801308B280030080091
:1001180021008C018D018E018F0122008C018D013F
:100128008E018F0123008C018D018E018F01080043
:100138008031CE2080318031C72080318031B52098
:1001480080318031DC2080310800210095111508AC
:10015800F83904389500951215128B162000950170
:10016800080021008E150E16133024009200283046
:1001780095000800240016141618C328C428C0289F
:1001880020009111080080318C2080318031E120DD
:1001980080310800210099141908873970389900AE
:1001A8000800240016151619DA28DB28D7280800B5
:0E01B8008031A92080318B1708000800080054
:020000040001F9
:04000E00E4FFFFDF2D
:00000001FF
